:020000040800F2
:10000000FCFF00208D1900008519000085190000F3
:100010008519000085190000851900008519000068
:100020008519000085190000851900008519000058
:100030008519000085190000851900008519000048
:100040008519000085190000851900008519000038
:100050008519000085190000851900008519000028
:100060008519000085190000851900008519000018
:100070008519000085190000851900008519000008
:1000800085190000851900008519000085190000F8
:1000900085190000851900008519000085190000E8
:1000A00085190000851900008519000085190000D8
:1000B00085190000851900008519000085190000C8
:1000C00085190000851900008519000085190000B8
:1000D00085190000851900008519000085190000A8
:1000E0008519000085190000851900008519000098
:1000F0008519000085190000851900008519000088
:100100008519000085190000851900008519000077
:100110008519000085190000851900008519000067
:100120008519000085190000851900008519000057
:100130008519000085190000851900008519000047
:100140008519000085190000851900008519000037
:1001500001480068704700BF9800002081B019492D
:1001600000EA0101084600220EE0042022E00820F7
:1001700020E010201EE020201CE040201AE080201B
:1001800018E040F2001015E00F498842EDD00F4909
:100190008842ECD00E498842EBD00E498842EAD022
:1001A0000D498842E9D00D498842E8D00C4988427F
:1001B000E7D010460B49096841EA000209490A6084
:1001C00001B0704700FCFFFF00080140000C014037
:1001D000001001400014014000180140001C0140C3
:1001E000002001401810024083B0CDF800E000F07C
:1001F000FF031A09104603F00F02134614E0194AD0
:1002000002921FE0184A02921CE0184A029219E07A
:10021000174A029216E0174A029213E0164A029217
:1002200010E0164A02920DE00028E8D00128E9D03B
:100230000228EAD00328EBD00428ECD00528EDD022
:100240000628EED0012212B29A40ADF8042002989E
:100250000A46BDF8041000F055FADDF800E003B0DE
:10026000704700BF00080140000C01400010014031
:100270000014014000180140001C01400020014012
:1002800082B0CDF800E0034619460191FFF760FF08
:1002900040F2E83100FB01F201990A601F49097838
:1002A000C1F30311C8B21E4909180878C0B21A1D5B
:1002B0001968C140116019490988C1F3022188B247
:1002C000174909180878C0B203F20802191D096815
:1002D000C140116011490988C1F3C22188B2104997
:1002E00009180878C0B203F20C02191D0968C14050
:1002F00011600A490988C1F3813188B20949091896
:100300000978C8B203F2100203F20C010968B1FBCC
:10031000F0F11160DDF800E002B070470410024017
:100320007C1D00002418000081B0ADF800100146CB
:10033000BDF800000B68C3F3C01202B9FAE70A1D4A
:10034000106001B07047FFFF81B000230360CB0055
:100350009BB242EA030304689BB244EA03030360CE
:10036000051D13141C462B6864F382032B6000F2F6
:100370001C0500242B6864F3CB232B600124036845
:1003800064F38613036001B07047FFFF81B0CDF8BE
:1003900000E0012252B23E490A6000F268010B6897
:1003A0006FF0006103EA0102144603F00061C90E18
:1003B0000B4602F00041B1F1004F02D135490A6805
:1003C00001E035490A6804F47021090C0E464FF625
:1003D000FF7104EA01010D4604F44011B1F5401F1C
:1003E0000DD16FF0706102EA01010E462A490A68D8
:1003F0006FF070610A4028490A60324616E004F442
:100400008011B1F5801F09D14FF00301B140C943FC
:1004100002EA010141F070610A4607E0610D09013D
:1004200005FA01F1C9430A4042F070622BB1610D37
:10043000090105FA01F10A43FFE704F00041B1F1B7
:10044000004F02D113490A6001E013490A6040F2EB
:10045000000A81464FEA8A0109EB01010968B1F1FE
:10046000FF3F10D009F134014FEA8A03C918096827
:100470000A4609EB0301096808461146FFF7B4FE76
:100480000AF1010AE6E7DDF800E001B0704700BFBD
:10049000000342421C0001400400014089B0CDF835
:1004A00000E0834698B28C46BDF824100A9E04AC46
:1004B000ADF80410ADF808002046FFF7E1FEBDF8E6
:1004C0000800BDF80410644CA34512D101256DB29B
:1004D000624C2560624D634C2560634D634C256022
:1004E000634D644C2560644D644C2560079C039407
:1004F00056E0634CA34512D101256DB2614C2560D5
:10050000614D584C2560614D584C2560604D594CEB
:100510002560604D594C2560069C039440E05E4C7C
:10052000A34512D101256DB25C4C25605C4D4D4C4C
:1005300025605C4D4D4C25605B4D4E4C25605B4D00
:100540004E4C2560069C03942AE0594CA34512D1D9
:1005500001256DB2574C2560574D424C2560574DD3
:10056000424C2560564D434C2560564D434C25600A
:10057000069C039414E0544CA34511D101256DB29F
:10058000524C2560524D374C2560524D374C2560FA
:10059000514D384C2560514D384C2560069C0394D4
:1005A000ADF80410ADF808003046FFF7EFFEBDF8D7
:1005B0000800BDF804100BF1100500242C600BF1AD
:1005C00010052C680C432C600BF10C0500242C60EA
:1005D00018B140F4806080B2FFE70BF10C052C6885
:1005E00004432C600BF10C060125346865F34D348F
:1005F00034600BF10C060125346865F3C3043460E4
:100600000BF10C060125346865F3820434600BF1AC
:10061000140500242C60039D192465434FEA8C04C3
:10062000B5FBF4F76424B7FBF4F426013509642420
:100630006C433C1B240104F232056424B5FBF4F442
:1006400004F00F0446EA04040BF10805A4B22C6080
:10065000DDF800E009B0704700380140380342423D
:100660003D090000A4000020FFFFFFFFA8000020BC
:10067000FFFFFFFFAC000020FFFFFFFFB0000020E6
:1006800000440040C4034242B9090000FFFFFFFFDD
:10069000FFFFFFFFFFFFFFFF00480040C80342428B
:1006A0009D090000FFFFFFFFFFFFFFFFFFFFFFFFB0
:1006B000004C0040CC03424205090000FFFFFFFF51
:1006C000FFFFFFFFFFFFFFFF00500040D00342424B
:1006D00021090000FFFFFFFFFFFFFFFFFFFFFFFFFC
:1006E00081B000F20C02116000F208021368C3F33B
:1006F000000202B9F8E700F20C02126890B201B0F1
:100700007047FFFF81B0CDF800E08CB21546774B03
:1007100000EA03031E461846FFF720FDB4F1FF0F61
:100720000CD1734B9D4203D14FF033333360D9E08A
:10073000422D03D14FF044333360D3E04FF6FF73C3
:100740009C4214D16A4B9D4207D14FF03333336042
:10075000341D4FF033332360C4E0422D07D14FF0F6
:1007600044333360341D4FF044332360BAE000213A
:10077000002005F001030BB100211DE005F002038C
:1007800033B105F4C0730BB1082100E0042113E07C
:1007900005F0040333B105F020030BB1042100E0A0
:1007A000002109E005F0080333B105F020030BB187
:1007B0000C2100E00821FFE74E4B05EA03030BB1D3
:1007C000032009E005F400730BB1022004E005F4F6
:1007D00080630BB10120FFE705F00C030BB101436F
:1007E000FFE704F0FF039BB2002B3BD037680020EB
:1007F0001FFA84F832462E4608282CD24FF0010307
:1008000003FA00F408EA0403A34222D185004FF062
:100810000F03AB40DB4307EA030401FA05F344EAA4
:1008200003031D4606F48173B3F5817F05D102F2FF
:1008300014044FF001038340236006F08203822BEF
:1008400005D102F210044FF00103834023602F46CC
:10085000FFE7401CD0E717601FFA88F00F463146CB
:10086000164602E00F462946A0B2B0F1FF0F39D973
:10087000331DD3F800800022082A30D202F2080487
:100880004FF0010303FA04F400EA0403A34224D165
:1008900095004FF00F03AB40DB4308EA030807FA6B
:1008A00005F348EA030801F48173B3F5817F07D1AA
:1008B00006F2140502F208044FF00103A3402B6076
:1008C00001F08203822B07D106F2100502F2080420
:1008D0004FF00103A3402B60FFE7521CCCE7331D10
:1008E000C3F80080DDF800E001B0704700FCFFFFB6
:1008F000140008000008080001480068704700BFA5
:100900000801224281B0CDF800E081B20348FFF730
:100910000BFDDDF800E001B0704700BF004C004067
:1009200081B0CDF800E081B20348FFF7FDFCDDF8AF
:1009300000E001B0704700BF0050004081B0CDF82A
:1009400000E081B20348FFF7EFFCDDF800E001B002
:10095000704700BF0038014081B0CDF800E081B29F
:100960000348FFF7BDFEDDF800E001B0704700BFAF
:10097000003C004081B0CDF800E081B20348FFF7B1
:10098000AFFEDDF800E001B0704700BF0038004066
:1009900001480068704700BF1001214281B0CDF8C6
:1009A00000E081B20348FFF7BFFCDDF800E001B0D2
:1009B000704700BF0048004081B0CDF800E081B230
:1009C0000348FFF7B1FCDDF800E001B0704700BF5D
:1009D0000044004001480068704700BF28012242DF
:1009E00001480068704700BF288122420148006822
:1009F000704700BF2481224201480068704700BF51
:100A00002C01224201480068704700BF3001224299
:100A100001480068704700BF00012142014800689A
:100A2000704700BF3481224201480068704700BF10
:100A30001401214201480068704700BF0C012242A6
:100A400001480068704700BF2081224201480068C9
:100A5000704700BF1881214201480068704700BFFD
:100A60001C81214281B0CDF800E081B20348FFF73C
:100A700037FEDDF800E001B0704700BF00300140F4
:100A800001480068704700BF188121420148006892
:100A9000704700BF1C81214201480068704700BFB9
:100AA0001481224283B0CDF800E08DF80400029159
:100AB0000B4C0C4B1C600C4C0C4B1C60012464B2A6
:100AC0000B4B1C601046FFF761FC029A9DF8041066
:100AD0000848FFF739FCDDF800E003B0704700BFBD
:100AE000310B00009C00002059090000A0000020EC
:100AF000BC034242003C004081B0CDF800E0044A13
:100B000089B2FFF7FFFDDDF800E001B0704700BFDC
:100B10001400080081B0CDF800E081B20348FFF76F
:100B2000DFFDDDF800E001B0704700BF0038004095
:100B300081B0CDF800E081B20348FFF7D1FDDDF8C8
:100B400000E001B0704700BF003C004081B0CDF82C
:100B500000E04FF0420289B2FFF7D4FDDDF800E07B
:100B600001B0704781B0CDF800E081B20348FFF7D3
:100B7000B7FDDDF800E001B0704700BF0030014074
:100B800001480068704700BF1881224281B0CDF84B
:100B900000E0019D2C4610B408B493B28AB201461D
:100BA0000348FFF77BFC02B0DDF800E001B07047BE
:100BB0000038014001480068704700BF3001224200
:100BC00001480068704700BF2C01224201480068BC
:100BD000704700BF3881224201480068704700BF5B
:100BE0002801224201480068704700BF308122423C
:100BF00081B0CDF800E0019D2C4610B408B493B24A
:100C00008AB201460348FFF749FC02B0DDF800E074
:100C100001B070470048004001480068704700BFBD
:100C20003081224281B0CDF800E0019D2C4610B405
:100C300008B493B28AB201460348FFF72FFC02B012
:100C4000DDF800E001B07047004400400149086051
:100C5000704700BF9C812142026803490A60011D60
:100C60000A6802490A607047880000208C00002052
:100C700001490860704700BF98812242014908601D
:100C8000704700BF9481224201490860704700BF4D
:100C90009881214200F230031A6806490A6003F283
:100CA0001C010A6804490A6000F208010A68034945
:100CB0000A6070479400002090000020840000200B
:100CC00042F6DF67C0F200077F1EFDD100BF00BF04
:100CD00000BF00BF00BF704783B0CDF800E08AB20C
:100CE000014690B283B2421E90B26BB10A78D4B280
:100CF000ADF804000291A0B2054C2468A047029907
:100D0000BDF80400491CEDE7DDF800E003B07047D2
:100D10008800002083B0CDF800E0ADF80810019005
:100D2000BDF80830BDF80820521EADF808204BB1C0
:100D30000020064C2468A047019A1070019A521CAA
:100D40000192EDE7DDF800E003B070478C00002071
:100D500081B0CDF800E0054C2468A04708B101201F
:100D600000E00020DDF800E001B0704790000020B6
:100D700019E0002030E000202EE000202CE00020D0
:100D80002AE0002028E0002026E0002024E00020C7
:100D900022E0002020E000201EE000201CE00020D7
:100DA0001AE0012018E00028E3D00128E3D002284F
:100DB000E3D00428E3D00528E3D00628E3D00728B1
:100DC000E3D00828E3D00C28E3D00D28E3D00E2888
:100DD000E3D00F28E3D0E4E77047FFFF0149086044
:100DE000704700BFB081224201490860704700BFD0
:100DF0009001214281B0CDF800E00178CCB2A0B2E0
:100E0000034C2468A0470020DDF800E001B07047E3
:100E10008000002081B0CDF800E0094902B440F222
:100E2000000340F2000240F20001FFF7FBFE01B0B8
:100E3000044A05490A600020DDF800E001B070476F
:100E40006C1B0000B9090000800000200149086007
:100E5000704700BF8801224201490860704700BF07
:100E6000AC01224201490860704700BFA80122423C
:100E700001490860704700BFB481224281B0CDF8BB
:100E800000E0011D0A680168C8B21146034AFFF775
:100E900009FE0020DDF800E001B07047441C0000AE
:100EA00081B0CDF800E0011D0A680168C8B21146A2
:100EB000034AFFF7F7FD0020DDF800E001B07047BE
:100EC000441C000081B0CDF800E0A9E0012905D163
:100ED00040F220016548FFF739FE04E040F22001AE
:100EE0006248FFF709FEBBE0012905D140F2080185
:100EF0005F48FFF72BFE04E040F208015C48FFF773
:100F0000FBFDADE0012905D144F200015948FFF78E
:100F10001DFE04E044F200015648FFF7EDFD9FE09E
:100F2000012905D140F200415148FFF70FFE04E0CE
:100F300040F200414E48FFF7DFFD91E0012905D165
:100F400040F600014A48FFF701FE04E040F60001C8
:100F50004748FFF7D1FD83E0012905D141F20001A7
:100F60004348FFF7F3FD04E041F200014048FFF77A
:100F7000C3FD75E0012905D141F200013D48FFF7AD
:100F8000E5FD04E041F200013A48FFF7B5FD67E0F6
:100F9000012905D140F600013648FFF7D7FD04E0EE
:100FA00040F600013348FFF7A7FD59E0012905D1BC
:100FB00040F240012F48FFF7C9FD04E040F2400134
:100FC0002C48FFF799FD4BE0012905D140F22001A3
:100FD0002848FFF7BBFD04E040F220012548FFF759
:100FE0008BFD3DE0012905D140F240012248FFF789
:100FF000ADFD04E040F240011F48FFF77DFD2FE00A
:10100000012905D140F280011B48FFF79FFD04E054
:1010100040F280011848FFF76FFD21E0012020E039
:1010200000283FF453AF01283FF45EAF02283FF49D
:1010300069AF03283FF474AF04283FF47FAF05285D
:101040003FF48AAF06283FF495AF0728A0D00828C0
:10105000ACD00928B8D00A28C4D00B28D0D0DDE7FE
:101060000020DDF800E001B0704700BF000801403B
:101070000010014000140140000C014081B0CDF887
:1010800000E0A9E0012905D140F210016548FFF711
:101090005DFD04E040F210016248FFF72DFDBBE06A
:1010A000012905D140F204015F48FFF74FFD04E03C
:1010B00040F204015C48FFF71FFDADE0012905D1B6
:1010C00042F200015948FFF741FD04E042F20001FD
:1010D0005648FFF711FD9FE0012905D140F200417C
:1010E0005148FFF733FD04E040F200414E48FFF75E
:1010F00003FD91E0012905D140F600014A48FFF7C0
:1011000025FD04E040F600014748FFF7F5FC83E0C9
:10111000012905D141F200014348FFF717FD04E022
:1011200041F200014048FFF7E7FC75E0012905D1D5
:1011300040F201013B48FFF709FD04E040F20101E4
:101140003848FFF7D9FC67E0012905D140F200419A
:101150003648FFF7FBFC04E040F200413348FFF75C
:10116000CBFC59E0012905D140F200212F48FFF7BF
:10117000EDFC04E040F200212C48FFF7BDFC4BE001
:10118000012905D140F200112848FFF7DFFC04E0F7
:1011900040F200112548FFF7AFFC3DE0012905D1E1
:1011A00040F240012248FFF7D1FC04E040F2400148
:1011B0001F48FFF7A1FC2FE0012905D140F2800173
:1011C0001B48FFF7C3FC04E040F280011848FFF71A
:1011D00093FC21E0012020E000283FF453AF0128D8
:1011E0003FF45EAF02283FF469AF03283FF474AFC9
:1011F00004283FF47FAF05283FF48AAF06283FF468
:1012000095AF0728A0D00828ACD00928B8D00A2864
:10121000C4D00B28D0D0DDE70020DDF800E001B01D
:10122000704700BF00080140001001400014014059
:10123000000C014081B0CDF800E0094902B440F251
:10124000000340F2000240F20001FFF79FFC01B0F2
:10125000044A05490A600020DDF800E001B070474B
:10126000B01C00003D0900008000002081B0CDF8D6
:1012700000E0094902B440F2000340F2000240F2EB
:101280000001FFF7CFFC01B0044A05490A600020C5
:10129000DDF800E001B070476C1B0000B9090000E8
:1012A0008000002081B0CDF800E0094902B440F28E
:1012B000000340F2000240F20001FFF799FC01B088
:1012C000044A05490A600020DDF800E001B07047DB
:1012D000D81B00009D090000800000200149086023
:1012E000704700BFB001224201490860704700BF4B
:1012F0009401214201490860704700BFAC012242BD
:1013000001490860704700BF9C8121420149086083
:10131000704700BFB881224201490860704700BF92
:101320008C01224201490860704700BFA801224297
:1013300001490860704700BFB001224201490860BE
:10134000704700BFA481224201490860704700BF76
:10135000A881224201490860704700BF80012142F4
:1013600001490860704700BFB0812242014908600E
:10137000704700BF9881214201490860704700BF53
:10138000A081224283B0CDF800E0029100228DF8C6
:10139000042000228DF805208DF806200F2801D9A1
:1013A000012035E001AB40F090021A70FFF7D0FC4D
:1013B00000B9FBE70020184C2468A04701AA0321CC
:1013C0001046FFF789FC0120134C2468A047FFF763
:1013D00077FCFFF7BDFC00B9FBE700200E4C24684A
:1013E000A04701AA03211046FFF794FC01200A4CF4
:1013F0002468A047FFF764FC01AC621C1278D0B2ED
:1014000003029BB2A21C12781343029A138000209D
:10141000DDF800E003B070478400002083B0CDF811
:1014200000E08DF8080000218DF8041000218DF8EF
:1014300005108DF806109DF80800FFF799FC08B11B
:10144000012032E001AA9DF8081009011170FFF790
:101450007FFC00B9FBE70020164C2468A04701A9D7
:1014600008460321FFF738FC0120124C2468A047EE
:10147000FFF726FC9DF80810012915D101AA0021CB
:101480001170FFF765FC00B9FBE70020094C2468E8
:10149000A04701A908460321FFF71EFC0120054CC7
:1014A0002468A047FFF70CFC0020DDF800E003B043
:1014B000704700BF8400002081B00A4681B200203E
:1014C0008DB21146052805D20B1820221A70401C37
:1014D000C0B2F7E70B1800221A70401EC0B20C18F9
:1014E0000A23B5FBF3F203FB125292B230322270A0
:1014F0000A22B5FBF2F292B295B202B902E0401EA6
:10150000C0B2ECE701B0704781B0CDF800E05FFAFF
:1015100081F95FFA82FA0FE05FFA8AF15FFA89F0E7
:10152000FFF7ACFD0DE05FFA8AF15FFA89F0FFF793
:10153000C9FC06E0012004E00028EDD00128F2D02B
:10154000F8E7DDF800E001B07047FFFF81B0CDF8AB
:1015500000E003460846FFF77FFB1846FFF79AFBBB
:101560000120034C2468A047DDF800E001B070477B
:101570008400002083B0CDF800E0029000218DF8B7
:10158000041000218DF805108DF8061001AAA02185
:101590001170FFF7DDFB00B9FBE70020184C246851
:1015A000A04701A908460321FFF796FB0120144C30
:1015B0002468A047FFF784FBFFF7CAFB00B9FBE7ED
:1015C00000200F4C2468A04701A908460321FFF71B
:1015D000A1FB01200A4C2468A047FFF771FB01AA78
:1015E000511C0978C8B2010289B2941C247841EADE
:1015F000040402990C80DDF800E003B0704700BFDE
:101600008400002083B0CDF800E0024610460D2291
:101610008DF808200A228DF809201FE0FFF7EAFB69
:1016200023E002782AB10190FFF7E4FB0198401C07
:10163000F7E71AE002782AB10190FFF7DBFB019887
:10164000401CF7E702AA1046FFF7D4FB0DF1090290
:101650001046FFF7CFFB08E0062007E00029DDD0A9
:101660000129DED00229E5D0F6E70020DDF800E010
:1016700003B0704781B0CDF800E011E00846FFF7F5
:1016800011FE16E00846FFF7F1FD12E00846FFF7ED
:10169000D1FD0EE00846FFF7BDFB0AE0012008E09F
:1016A0000028EBD00128EDD02028EFD03028F1D051
:1016B000F4E7DDF800E001B07047FFFF81B0CDF83E
:1016C00000E08B4609E05846FFF7EAFB0AE058467F
:1016D000FFF7D4FB06E0012004E00028F3D0012846
:1016E000F5D0F8E7DDF800E001B0704781B01548AB
:1016F000006840F00101134801601349134801607C
:1017000010480168124801400E4801600D48016808
:101710006FF4802001400B4801600C4801686FF4B1
:10172000FE00014009480160064801686FF0A050C2
:101730000140044801604FF000010648016001B01B
:10174000704700BF001002400000FFF0041002408C
:10175000FFFFF6FE2C10024081B0CDF800E02C48CF
:101760000088B0F5007F1ED20C20FFF757FE2848F6
:10177000FFF700FF264800882649FFF79DFE264810
:101780000121FFF73FFF02212248FFF73BFF43F211
:10179000FF57C0F26E1700BF00BF7F1EFDD100BF14
:1017A00000BF00BFDBE71A48008802281ED90420CA
:1017B000FFF734FE1648FFF7DDFE1548008815498F
:1017C000FFF77AFE15480121FFF71CFF022111489F
:1017D000FFF718FF43F2FF57C0F26E1700BF00BFBC
:1017E0007F1EFDD100BF00BF00BFDCE708480188B5
:1017F0000B480088884206D00220FFF70FFE0448FD
:10180000018807480180DDF800E001B0704700BFA3
:101810007C0000202B0000205D0000206C000020D8
:101820007E0000200204060881B0CDF800E001220D
:1018300007210020FFF768FE012200210020FFF7AA
:1018400063FE002202210020FFF75EFE0E480146E3
:101850000020FFF733FF42F280512020FFF70AFFFC
:101860000A480221FFF7CEFE44F67F77C0F2120746
:101870007F1EFDD100BF00BF00BF00BF00BFDDF86D
:1018800000E001B0704700BF8C1D00001B0000206D
:1018900081B01CF8019B0BF8019BBBEB0A0FF8D140
:1018A00001B07047FFFFFFFF81B0CDF800E01B499A
:1018B0001B48FFF74BFE49F6FF67C0F2240700BF45
:1018C00000BF7F1EFDD100BF00BF00BF1548FFF75E
:1018D00051FE15490020FFF755FD124801881248B6
:1018E0000088884202D00120FFF798FD0F480221AE
:1018F000FFF788FE0E480221FFF784FE49F6FF67D6
:10190000C0F2240700BF00BF7F1EFDD100BF00BF93
:1019100000BFDDF800E001B0704700BF941D00007B
:101920001C1D00007C0000207E0000200000002024
:101930001A00002081B04FF000094FF0000CBDEB01
:101940000A0F04DCBDEB0B0F01DBD446EA464BF873
:10195000049BBBEB0A0FFAD1BCEB0A0F05DDE24694
:10196000D9F800B00BF1040BF1E701B07047FFFFAD
:1019700081B002490248016001B07047401901007E
:101980009800002081B0FEE701B0704700F00EF82B
:1019900000F044FAFFF7ECFF00F000FAFFF744FF15
:1019A000FFF782FFFFF7D8FEFCE7FEE781B0CDF836
:1019B00000E0464A464B474C47494BF6803081424F
:1019C00006D94648006840F002014448016011E031
:1019D00045F6C050814206D94048006840F00101F8
:1019E0003E48016006E03D4801686FF00700014095
:1019F0003A480160FFF77AFE3948036039480460CD
:101A0000394802EA00013948016002F0010040B1A2
:101A100019463648006800F00200002800D1F8E7B7
:101A200000E0194602F4803040B10B462F480068B0
:101A300000F40030002800D1F8E700E00B4602F087
:101A4000805068B12948006840F080512748016003
:101A50002648006800F00050002800D1F8E7FFE7B2
:101A600002F0806078B12148006840F080611F4832
:101A7000016011461A461D48006800F00060002809
:101A800000D1F8E701E011461A4601F0807070B10C
:101A90001648006840F080711448016011461348F0
:101AA000006800F0007000B9F9E70A46FFE70C484B
:101AB000006800F00C01900000F00C00814200D0A2
:101AC000F5E7DDF800E001B0704700BF81000105D7
:101AD00002841D004406010040190100002002405C
:101AE000041002402C100240FFFF0F0000100240C3
:101AF0004449474920504F54203320697320696E70
:101B0000697469616C697A65640000496E69746919
:101B1000616C697A696E672E2E2E0000000000004D
:101B200000000000000000000000000000000000B5
:101B300000000000000000000000000000000000A5
:101B400000000000000000000000000000444143CD
:101B50002076616C75652069733A2000444143200A
:101B600076616C75652069733A2000FF35000000CE
:101B700036000000FFFFFFFF000000000000000033
:101B80000000000000000000000000000000000055
:101B90000000000000000000000000000000000045
:101BA00018080000180000000000000000000000FD
:101BB0000000000000000000000000000000000025
:101BC0000000000000000000000000000000000015
:101BD0000000000008000008380000003900000084
:101BE000FFFFFFFF000000000000000000000000F9
:101BF00000000000000000000000000000000000E5
:101C000000000000000000000000000018080000B4
:101C100018000000000000000000000000000000AC
:101C200000000000000000000000000000000000B4
:101C300000000000000000000000000000000000A4
:101C4000300014082A0000002B0000002C000000C7
:101C5000FFFFFFFF00000000000000000000000088
:101C60000000000000000000000000000000000074
:101C70000000000000000000180800001808000024
:101C80001808000000000000000000000000000034
:101C90000000000000000000000000000000000044
:101CA00000000000000000000000000000112008FB
:101CB000090000000A000000FFFFFFFF0000000015
:101CC0000000000000000000000000000000000014
:101CD0000000000000000000000000000000000004
:101CE00000000000180800001800000000000000BC
:101CF00000000000000000000000000000000000E4
:101D000000000000000000000000000000000000D3
:101D1000000000000000000004000000E90D0000C9
:101D20004D0E0000710E0000650E0000590E0000FF
:101D3000DD12000055130000491300003D130000A0
:101D4000791300006D1300000113000091090000D9
:101D5000F90800001D0A0000D5090000F90900007B
:101D6000050A0000110A0000E1090000ED09000069
:101D7000410A00004D0A0000590A0000000000005E
:101D8000010203040102030406070809070000001A
:101D90000403000059090000310B000000B5DFF812
:101DA00014B0DFF814A0DFF814C0FFF771FD00BD18
:101DB000704700BF000000207B000020F01A0000E8
:101DC000FFFFFFFFFFFFFFFFFFFFFFFFFFFFFFFF23
:101DD000FFFFFFFFFFFFFFFFFFFFFFFFFFFFFFFF13
:101DE000FFFFFFFFFFFFFFFFFFFFFFFFFFFFFFFF03
:101DF000FFFFFFFFFFFFFFFFFFFFFFFFFFFFFFFFF3
:101E0000FFFFFFFFFFFFFFFFFFFFFFFFFFFFFFFFE2
:101E1000FFFFFFFFFFFFFFFFFFFFFFFF00B5DFF842
:101E200010B0DFF810A0FFF785FD00BD704700BFC0
:101E300000000020B4000020FFFFFFFFFFFFFFFFB6
:00000001FF
